:020000020000FC
:100000000280210276AE11121341210271CD7E03CE
:100010007F1122027386EE30E707C3E49FFFE49E60
:10002000FE222202849B013B02580F600203200241
:100030000D028001E0028001E00022001E0C0C0392
:100040000700015E029B0F40030360020D02800166
:10005000E0028001E0005100240C0C030900017B48
:1000600002D80F280303400208028001E002800149
:10007000E0007200190C0C030A00017702EE0F4039
:1000800003034801F4028001E0028001E0006A00FD
:100090000D0C0C030B0001B103520F380303400198
:1000A000FD028001E0028001E0004200160C0C031A
:1000B0000C00013502400F200A03300219028001B2
:1000C000F4028001F4004200030C0C030D00013B1C
:1000D00002BD0F6C02038401C102D0019002D00165
:1000E00090002800200C0C030300017B03520F48F2
:1000F0000203A801BE02D0019002D00190005C0072
:10010000270C0C03060001F102E90F4003048002F2
:100110009B034002700340027000D0001A0C0C03D5
:100120000E00016002330F48020400027103200236
:100130005803200258007100130C0C030F00017BC0
:10014000025B0F8004042002740320025803200283
:1001500058004900140C0C03100001E102D20F7882
:10016000060410029A0320025803200258003100AE
:10017000140C0C03110001D502EE0F5003042002F1
:10018000710320025803200258009100120C0C0346
:100190001200021903530F400304180277032002D0
:1001A0005803200258008900180C0C031300013674
:1001B00002580F700804400205035001E00350018B
:1001C000E0006100140C0C031400012A02550F50CA
:1001D00005042001F4035001E0035001E0005A003F
:1001E000090C0C031500015E02BC0F58030430011A
:1001F000F4035001E0035001E00061000D0C0C031A
:100200001600016902D00F5803044001F5035001A4
:10021000E0035001E00069000E0C0C0317000179A7
:1002200002EC0F5005044001F8035001E0035001B7
:10023000E0006A000D0C0C031800016702570F481C
:10024000070390025702D0024002D0024000510042
:100250000A0C0C031900017902570F8806052002C9
:100260007404000258040002580090000B0C0C03A8
:100270006700016303660FB00204F00198040003F5
:100280000004000300002900110C0C031A0001E413
:1002900002580F88060540032604000300040003EB
:1002A000000091001A0C0C031B00023502BD0F88E0
:1002B000060530032604000300040003000081004B
:1002C0001A0C0C031C00024102D00F7003055003EE
:1002D0002104000300040003000097001A0C0C0323
:1002E0001D00025802EE0F600305200320040003E6
:1002F000000400030000A000190C0C031E000263A0
:1003000002F80F60030550032304000300040003F8
:1003100000009D001C0C0C03680002AF03520F602C
:100320000305600328040003000400030000BF006D
:10033000210C0C031F00021C02580F600305C803A8
:1003400084048003600480036000A000190C0C0387
:100350006900027F02BC0F600305C803900480039C
:10036000600480036000B700290C0C03230002A383
:1003700002EE0F80030640038404800360048003C0
:100380006000EF001D0C0C0324000303034F0F78E3
:10039000040610038E048003600480036000B6002E
:1003A000240C0C03250002AF02EF0F800305B003FD
:1003B000930480036604800366008000240C0C0311
:1003C0002600026A02940F800405E003A90480035A
:1003D000840480038400B0001C0C0C03270002CDB1
:1003E00002F90F600805C003AF0480038404800392
:1003F0008400BF001E0C0C03280001C202580F2805
:1004000005067202EE050002D0050002D000CC0005
:10041000110C0C032200023502EC0F800506A0022D
:10042000F3050002D0050002D000C000180C0C0338
:100430002A0001DA02580F200705A0031605000361
:100440000005000300004000090C0C032B0001DE36
:1004500002570280070680031E0500030005000303
:100460000000B100110C0C032C00023502BD0F80FE
:100470000706A00326050003000500030000C500D1
:10048000190C0C036A00024102D10F800706A00379
:1004900020050003000500030000C5001A0C0C0332
:1004A0006B00025B02ED0F800706A0032505000329
:1004B000000500030000C000180C0C032F0002AE62
:1004C00003500F880706B003290500030005000349
:1004D0000000C8001C0C0C03200001ED02570F2087
:1004E0000605A00337050003200500032000410096
:1004F0000B0C0C03300001ED02570F200606900391
:100500003F050003200500032000B900150C0C0373
:100510003100020802710F480306A00341050003E1
:10052000200500032000C1001A0C0C033200025900
:1005300002D00F880306B003420500032005000324
:100540002000C8001B0C0C033300027502EE0F8064
:100550000606A00346050003200500032000C00096
:100560001A0C0C03340002CC03510F880606B003AA
:100570004B050003200500032000C8001F0C0C03DE
:100580003500025802580F7003070803E8050003FE
:10059000C0050003C0012700210C0C03360002EE49
:1005A00002EE0F9003069003E8050003C005000368
:1005B000C000E000240C0C036E00035B03520FA08C
:1005C0000306C003F3050003C0050003C000CD000F
:1005D0002C0C0C033700028002580F70030698049D
:1005E0002A050004000500040000E700230C0C03AA
:1005F000380002CD02A00F70030660042B05000432
:10060000000500040000CF001E0C0C036C0002ED7E
:1006100002BB0FA00406A00430050004000500047E
:100620000000CE00270C0C03390002E802BC0F705A
:1006300005068E0428050004000500040000C6001D
:100640001F0C0C033A00030B02D00F880506C004F0
:100650003A050004000500040000CE00310C0C0334
:100660003B00032002EE0F64140698042A050004E0
:10067000000500040000E600230C0C033C00032CE2
:1006800002FA0F40080680042A0500040005000451
:10069000000110001D0C0C033D00039003520FA03D
:1006A0000306C00430050004000500040000CD006E
:1006B000290C0C033E0001DD02560F8F03070003D7
:1006C0001E055603000556030000C600150C0C035A
:1006D0002E00028702570F200607300438069004C8
:1006E0001A0690041A003F00120C0C034000028D01
:1006F00002580FB00608C004410690041A06900480
:100700001A0107001B0C0C034200033702ED0FB067
:100710000608E0044B0690041A0690041A0117001C
:10072000250C0C034400022B02570F200606400341
:100730009E05A0038405A003840040000E0C0C035A
:100740004600022F02570F9806077003A605A00364
:100750008405A0038400D800160C0C03480002C2D4
:1007600002EE0F9806079003AE05A0038405A003D0
:100770008400E8001E0C0C032900022B02580F20F5
:100780000506E0039E0640038406400384003F0004
:100790000F0C0C034700026902570F200606E00405
:1007A00005064003E8064003E8003F00110C0C0377
:1007B0004900026E02570FA8060850040E064003B7
:1007C000E8064003E800F7001A0C0C034A00031087
:1007D00002EC0FA80608700417064003E806400361
:1007E000E8010500230C0C034B0002E402570F2024
:1007F0000406E004D3064004B0064004B0003E0006
:100800001A0C0C034C0002EE02580FC004087004CE
:10081000E2064004B0064004B0011D002B0C0C039E
:100820004E00032D028A0FC003087004E206400444
:10083000B0064004B0011C002B0C0C034F00036BEE
:1008400002BC0FC003087004E2064004B006400476
:10085000B0011C002B0C0C03500003AA02EE0FC0C9
:1008600003087004E2064004B0064004B0011C0016
:100870002B0C0C035100031B02570FA8070870052F
:100880002F0640050006400500010500220C0C0360
:100890005200029A02570F200508200457078004CF
:1008A0003807800438004000130C0C03530002A0EA
:1008B00002580FC8050A1004600780043807800436
:1008C000380137001D0C0C03540002A302580F2CF2
:1008D0000508980465078004380780043800820002
:1008E000210C0C035700026601F40F2006082004B7
:1008F000CD078004B0078004B0003E00110C0C034B
:10090000550002E402580F2006082004D307800493
:10091000B0078004B0003D00170C0C034D0002EA44
:1009200002570FC8060A2004DD078004B0078004C0
:10093000B0013E00210C0C035600013B02580F3E53
:1009400009035A020D02D001E002D001E0002E009E
:100950001B0C0C030800013901F40F400503600271
:100960007102D0024002D00240003600240C0C0379
:100970005800016802580F40050390025802D00247
:100980004002D002400063000F0C0C036D000177A1
:1009900001F40F280507BC02EE050002D005000295
:1009A000D000CD00110C0C035900023301F40F2CC0
:1009B000050A500465078004380780043800850064
:1009C000230C0C035A00009D02580F3E02035A01EB
:1009D0000602D001E002D001E0002C000C0C0C0358
:1009E0005B00009D02580F7C0206B4010605A001C1
:1009F000E005A001E00058000C0C0C035C00009D19
:100A000002580FF8020D6801060B4001E00B40018F
:100A1000E000B0000C0C0C035D00015202580F2CDA
:100A200002089802320780043807800438008500E5
:100A30000C0C0C035E00009D01F40F3F01036001EC
:100A40003802D0024002D00240003800100C0C03E3
:100A50005F00009D01F40F7E0106C0013805A00271
:100A60004005A00240007000100C0C036000009DC7
:100A700001F40FFC010D8001380B4002400B4002D5
:100A80004000E000100C0C036100014202030FA8BB
:100A900016090002710780043807800438008400BA
:100AA0000C0C0C036200011901F40F2C020A500215
:100AB0003207800438078004380084000C0C0C03D3
:100AC000630002BD02570F200308A004A108000420
:100AD0008008000480003E00160C0C03640002CC69
:100AE00002580FD8030AC004AB08000480080004B1
:100AF00080015200200C0C036500017902580F8020
:100B000005069802740500025805000258005100BD
:100B1000140C0C036600FFFFFFFFFFFFFFFFFFFF4A
:100B2000FFFFFFFFFFFFFFFFFFFFFFFFFFFFFFFFD5
:100B3000FFFF908154E090A0D7F0908150E090A00A
:100B4000D6F0908188E090A0DAF09081D0E090A07B
:100B5000D1F0E490A0D8F090A0D8E0FFC394035067
:100B600037EF25E0049081D0F07A8179D1121B0E05
:100B700090A0D2E0FFC394065019A31219E01252BC
:100B8000B4FE121A31EEF0E412531C90A0D4121BE2
:100B9000D580DD121C7080BF9081D0740DF0E49080
:100BA0008154F0908020E020E203020D359080F522
:100BB000E090A0D9F012CD7D121C69C394024003CD
:100BC000020C76121B8612CC2390A0E3EEF0A3EF6A
:100BD000F0E4FFFE12CD127F057E0012C212121B3E
:100BE000E212B9FE121BAF1257F11218E51212DE13
:100BF00012B9FEC006C007121BE912B9FEAC06AD61
:100C000007D007D0061212BD402E74FFFFFE12124D
:100C1000667B017A8179DE12B9FEC006C007121B1D
:100C2000E912B9FEAC06AD07D007D0061212BD40DE
:100C3000077F017E0012126690A0E3E0FEA3E0FFB2
:100C400012C2121218E51212DE12B9FEC006C00757
:100C5000121BE912B9FEAC06AD07D007D00612127E
:100C6000D19401EE648094805003020D2D90816E2A
:100C70007447F0020D2D121B86121BE212B9FE12F0
:100C80001BAF1257F1121C7712B9FEC006C0077BCA
:100C9000017A80792E12B9FEAC06AD07D007D006D6
:100CA0001212D19400EE648094804037908020E04E
:100CB00030E637E054BFF0121C77128A3590A0E37B
:100CC000121A817A80792E128A35AC06AD07121C71
:100CD000771257F17A80792E90A0E3121A98125762
:100CE000F18007908020E04440F01218E512BFD553
:100CF0007B017A8179DE12B9FEC006C007121BE9BA
:100D000012B9FEAC06AD07D007D006C3ED9FFFECCD
:100D10009EFE120016D3EF9401EE64809480400D85
:100D200090816EE04440F01218E512BFD590A0D932
:100D3000E09080F5F07B017A817971128A3590A07C
:100D4000DBEEF0A3EFF090A0DB1219521257F190F6
:100D5000A0D6E04420908150F0121B4912B9FE90B9
:100D6000A0F1EEF0A3EFF01212927B017A81798468
:100D7000128A3590A0E3EEF0A3EFF07A8379FD902C
:100D8000A0E31212AB90A0DB1218CD121ADDC00442
:100D9000C005C006C00790A0E3121889D007D0068E
:100DA000D005D004124EE090A0DB60234021121841
:100DB000CD121ADDC004C005C006C00790A0E31222
:100DC00018CDD003D002D001D000124C458027129C
:100DD00018CD7BCD7ACC79CC783D124D3AC004C089
:100DE00005C006C00790A0E31218CDD003D002D0F2
:100DF00001D000124C49121C2B121878FFE4124F3C
:100E00004DC004C005C006C00790A0ED121A5012D4
:100E10004F52D003D002D001D000124D3AC004C0CE
:100E200005C006C00790A0DB121889D007D006D0F5
:100E300005D004124E43C004C005C006C007121AF4
:100E40004D12188FD007D006D005D004121A169074
:100E5000A0F5121875FFC004C005C006C00790A019
:100E6000F512187BFBAA06A905A804D007D006D066
:100E700005D004C3EF121C1F1219401293F5908184
:100E8000867401F09081887406F07F507E0012BF56
:100E9000D512993D50030211CAE490A0F1F0A3F0DD
:100EA00090A0E512566C0000000090A0E912566C6C
:100EB00000000000E490A0D8F09081887406F01241
:100EC0001A221218FC12BFD5121B4912B9FE90A0AB
:100ED000F2E02FF090A0F1E03EF0908020E090A0B2
:100EE000E530E21B1218AFC000C001C002C00312FF
:100EF000A2D1D003D002D001D000121AE7801C1278
:100F000018AFC000C001C002C003121B2212B823D8
:100F1000D003D002D001D000121BF090A0E51256F1
:100F2000609081887402F090A0E91218AFC000C0F0
:100F300001C002C003121B2212B823D003D002D07A
:100F400001D000121BF090A0E9125660121C70E054
:100F5000C394045003020EB990A0F2E02402FF9063
:100F6000A0F1E03400FE7C007D041253B7EEF0A344
:100F7000EFF090A0E512187B2402121964121BBD39
:100F800090A0E512566090A0E912187B2402121975
:100F900064121BBD90A0E912566090A0DB12199557
:100FA00090A0E912187BFF12555390A0DF1219B2DE
:100FB000121BFD12187BFF12555390A0E11219B2BB
:100FC000121BFD12187BFF12555390A0DDEEF0A30B
:100FD000EFF07A847906A31212AB7A84791390A089
:100FE000E11219C1125E877BFF7A84792090A0DD1F
:100FF0001219C3125E8712129290A0DB1218CD1242
:101000001ADDC004C005C006C00790A0DF12188911
:10101000D007D006D005D004124C45121C2B90A04E
:10102000ED121A50124F52C004C005C006C00790FE
:10103000A0DD1218CDD003D002D001D000124D3A5D
:10104000C004C005C006C00790A0DB121889D007F5
:10105000D006D005D004121A1690A0E2E02FFF901F
:10106000A0E1E03EAB07FA7D0912191C4003021013
:10107000E31219B97D07121C7E1D12192B400302C1
:1010800010E31219B97D05121C7E0D12192B4003B5
:101090000210E37D0312191C400280471219B9FFA8
:1010A0007C001219294002803AC3E49FFFE49EFEAF
:1010B00012192E400590A0F3802A1219B9FF7C0066
:1010C0007D031253507D061253B7C3E49FFFE49E85
:1010D000FE12192E4002800B1219B9FF7C007D060A
:1010E0001253B7A3EEF0A3EFF090A0E1121AC49050
:1010F000A0F4E09FFF90A0F3E09E90A0EFF0A3EF9C
:10110000F0121878FFE4124F4DC004C005C006C0AD
:101110000790A0EF121A50124F52D003D002D00104
:10112000D000124D3AC004C005C006C00790A0DD33
:10113000121889D007D006D005D004124E43C0043F
:10114000C005C006C007121A4D12188FD007D0066E
:10115000D005D004121A1690A0F512566090A3354F
:101160001218AF90A0F512187BFF121AE71219405F
:101170001219B9FF7C007D021253B7ED4C60421288
:101180001878FFE4124F4DC004C005C006C0071216
:101190001A4D12188FD007D006D005D004124E4336
:1011A000C004C005C006C007121B67124F52D0030F
:1011B000D002D001D00012193A121C5B121B6780BA
:1011C000031218D61257F11293F590A0D7E0908130
:1011D00054F0E4908186F090A0D6E0908150F01217
:1011E000993D402A7F507E0012BFD5121B4912B98B
:1011F000FE90A0F1EEF0A3EFF01218D61257F17B9B
:10120000FF7A84792C90A0F11219C3125E8712180C
:10121000BB1257F190A0DAE0908188F0E490A0D85A
:10122000F090A0D8E0FFC394035032EF25E0049083
:1012300081D0F0121B0E90A0D2E0FFC3940650188C
:10124000121A31E0FF90A0D31219E0EF12531C9054
:10125000A0D4E4121BD580DE121C7080C490A0D1F3
:10126000E09081D0F02212CD127F057E0012C212D2
:1012700090A33EE0FEA3E0FBAA06E4F9F87F807E9F
:10128000387D01FC1285E1EF2401FFE43EFE12BF30
:10129000D5227BFF7A8379ED90A0F1E0FFA3E09067
:1012A000A0FCCFF0A3EFF0125E87227BFFE0FFA34C
:1012B000E090A0FCCFF0A3EFF0125E8722C3ED9F79
:1012C000FFEC9EFE120016D3EF9401EE6480948032
:1012D00022C3ED9FFFEC9EFE120016D3EF2212BF39
:1012E000D57B017A8179DE2290A0B5EEF0A3EFF0F4
:1012F000A3EDF0A3EBF0128D8B9080F5E090A0D3DE
:10130000F0E49080F5F0908150E04420F07B017A89
:10131000807936128A3590A0C5121A817A80793286
:10132000128A3590A0BB121A817A8179B5128A355A
:10133000EF2401FFE43E90A0BD121C3720E203C35E
:101340008001D3920990A0B7121C0D121892121AA4
:101350000E90A0B9EEF0A3EFF090A0B7E0B4640C4B
:1013600090A0CB12566C3F800000803690A0B9123E
:1013700018CD7B007A2079087845124EE0600C4049
:101380000A90A0B97408F0A37482F090A0B9121862
:10139000CD7B007A8079F77844124E4390A0CB122F
:1013A0005660121C0A121892E4FFFE7DC87C42129D
:1013B0004E4390A0CF125660121A671218AF121A3D
:1013C000727F007E407D037C4590A0CB1218AF1247
:1013D0001B2990A0C3E0FCA3E0FDC394ACEC9408EF
:1013E000400302147B121A89C004C005C006C0075E
:1013F00090A0BF1218CDD003D002D001D000121996
:101400006FC004C005C006C00790A37212187BFF0E
:10141000E4124F4D121892D007D006D005D0041216
:101420004E43C004C005C006C00790A0BB12188977
:10143000D007D006D005D004124E4390A0C7121B8F
:101440000290A0C71218AF12193A30090912187881
:10145000121BC61219407F807E777D8E7C0690A37A
:10146000351218AFD3125609501190A0C4E0240AC7
:10147000F090A0C3E03400F00213D2D390A0C4E0F7
:1014800094AC90A0C3E09408400CA3E024F8F09042
:10149000A0C3E034FFF07F007E957DBA7C0A90A364
:1014A000351218AFD312560950030215817F007E02
:1014B000807DF77C4490A0CB1218AF121B29FDACA5
:1014C0000612188E7F007EBA7DDB7C49124E43C027
:1014D00004C005C006C00790A0BB1218CDD003D031
:1014E00002D001D000124D3AC004C005C006C007AA
:1014F00090A33C121889D007D006D005D004121949
:1015000085121A7890A0BD121AF47804125641C0C0
:1015100006C00790A0BB121995D007D00612195E1D
:10152000780412561A121B76502090A0BBE0FEA33E
:10153000E0FF7C047D4212572EC006C007121994AA
:10154000D007D006125553121A78121A671218AF24
:10155000124D3AC004C005C006C00790A0BF1218C3
:1015600089D007D006D005D004124EE06013401198
:10157000121A671218AF121A72128D8B12C500C29E
:101580000A90A0BF1219521257F17A81797190A076
:10159000BF121A981257F190A00BE064077004A3D1
:1015A000E06480702890A00DE064047004A3E064FF
:1015B00038701A908020E020E2047F0080027F01D2
:1015C000EF600A1218CAE4FBFA79E0803390A00BAE
:1015D000E064077004A3E06480702990A00DE064CB
:1015E000047004A3E06438701B908020E020E204C3
:1015F0007F0180027F00EF600B1218CAE4FBFAF94A
:101600007840800B1218CA7BCD7ACC79CC783D1209
:101610004C49C004C005C006C00790A0BF1218CD39
:10162000D003D002D001D00012196FC004C005C091
:1016300006C00790A37212187BFFE4124F4D1218D8
:1016400092D007D006D005D004124E43C004C00586
:10165000C006C00790A0BB121889D007D006D005DD
:10166000D004124E4390A0C7125660121878FF9013
:10167000A0D4121B0290A0C71218AF12193A300959
:10168000119081887410F0121878121BC61219403C
:101690008005E4908188F090A0C3E0FEA3E0FF7B8A
:1016A000017AA079B51226EC1293F590A0D4121805
:1016B0007BFF1219407F0A7E0012BFD512993D5060
:1016C00003021858300908121B38121A0580351207
:1016D0001B49128A35EE540F90A0B9F0A3EFF09099
:1016E000A0C3121AC490A0BAE09FFF90A0B9E09ED8
:1016F000FE120016121C51500B90A0B9E0FFA3E09F
:10170000CF121B30121878121C4AFBFA792078414C
:10171000124D3AC004C005C006C00790A0C31218FD
:1017200089D007D006D005D004124E43C004C005AE
:10173000C006C00790A33E121889D007D006D00576
:10174000D004121985121B76500A90A0C17404F0BF
:10175000A37442F07A81795B90A0C1121B5012579A
:10176000F17B017A8179627D087C001257F1121AAF
:10177000671218AF124D3AC004C005C006C00790EA
:10178000A0BF121889D007D006D005D004124C454E
:10179000E4FBFAF97840124E43784112198A121A82
:1017A000B77A81796F1257F1121C5B90A0C4E024C4
:1017B00002FD90A0C3E03400FC1257F190A0BFE0FE
:1017C00064047004A3E064386006121B38121A0522
:1017D00090A0B7E0FCB46406A3E06464607AE4120D
:1017E0004F57121892121A0E90A0B9EEF0A3EFF014
:1017F00090A0B91219041257F190A0BAE02480FF0A
:1018000090A0B9E034F8C313FEEF132420FFE43EA8
:10181000F0A3EFF090A0B91219E91257F1121C0AC7
:101820001218927EF07DD27C47121A14121AB77ADF
:101830008179711257F190A0BAE024C8FF90A0B945
:10184000E034FBC313FEEF132408FFE43EFE121A3C
:10185000BB7A8179621257F17B017A8179647D3894
:101860007C041257F190A0D3E09080F5F0D20AA248
:101870000A2290A0E112566090A335E0FCA3E0FD9F
:10188000A3E0FEA3E02290A0AFE0FCA3E0FDE41201
:101890004F52A804A905AA06AB0722124E4390A0F6
:1018A000E512566090A0E57F007E1B7D377C4DE001
:1018B000F8A3E0F9A3E0FAA3E0FB2290A04B7B01A0
:1018C0007A817964E0FCA3E0FD2290A0C3E0FCA350
:1018D000E0FDE4024F5290A0F17B017A81795EE055
:1018E000FCA3E0FD2290A33EE0FEA3E0FBAA06E4F9
:1018F000F9F87F807E387D01FC1285E1EF2401FF3D
:10190000E43EFE227B017A817975E0FCA3E0FD22B2
:101910007B017A817971E0FCA3E0FD2290A0F1E0E7
:10192000FEA3E0FF7C001253507D061253B7D3EBA9
:101930009FEE6480F8EA64809822124D3A124F8B31
:1019400090A3350256607B017A81795BE0FCA3E0CD
:10195000FD227B017A817964E0FCA3E0FD2212552F
:1019600053EF2408FFE43EFEE43DFDE43CFC22127C
:101970004D3A79807845E4FBFA024D3A90A067E051
:10198000FCA3E0FD22124E43783FE4FBFAF9124C2F
:1019900049024F8BA3E0FEA3E0FBAA06E4F9F8227C
:1019A00090A049E0FCA3E0FD2290A0B7E0FCA3E0FA
:1019B000FD22AF03EAF0A3EFF090A0F1E0FEA3E078
:1019C000227BFFE0FFA3E090A0FCCFF0A3EFF0228A
:1019D000780512561AE4124F4D90A0E52290A0F916
:1019E000E0FBA3E0FAA3E0F9227B017A817966E0CB
:1019F000FCA3E0FD22908150E0FF90A0ADE4F0A3B5
:101A0000EFF090A0ADA3E054DF908150F0227E80F3
:101A10007D3B7C487F00124E43024F8B90A0F91211
:101A2000566090A33EE0FCA3E0FD7E277F100253AA
:101A30006290A0D8E075F006A424BFF582E434A03B
:101A4000F583E5822FF582E43583F5832290A0F1BA
:101A5000E0FCA3E0FDEC2290A055E0FFA3E090A005
:101A6000B7CFF0A3EFF022E4FFFE7D877C4490A087
:101A7000CF22124D3A124F8B90A0BFEEF0A3EFF0A1
:101A800022EEF0A3EFF07B0122E4124F527BCD7ADD
:101A9000CC79CC78BD024C497B01E0FCA3E0FD226F
:101AA0007B0190A067E0FEA3E0FF90A066E02FFD21
:101AB00090A065E03EFC2290A0B9EEF0FCA3EFF010
:101AC000FD7B0122E0FEA3E0FFC32290A0B5EEF073
:101AD000A3EFF090A05FE0FCA3E0FDD32274667852
:101AE0003FFBFAF9024D3AEB2FFFEA3EFEE93DFDDE
:101AF000E83CFC22E0FEA3E0FFA3E0FCA3E0FD0243
:101B0000572E1256607F007E1B7D377C4D2290A0A1
:101B1000D37401F0A37481F0A374D1F0E490A0D247
:101B2000F0227B017A81798922124D3A124F8BEE95
:101B300090A0C3F0A3EFF022908150E0FF90A0B9F5
:101B4000E4F0A3EFF090A0B9227B017A81798222A0
:101B50007B01E0FCA3E0FD2290A0C3E0FEA3E0FF38
:101B6000AD03AC0202536290A0F2E024FFFD90A00E
:101B7000F1E034FFFC2290A0C1EEF0A3EFF0C3949B
:101B800042EE940422F090816E7407F022D390A06C
:101B900003E0943090A002E09402229FFFE09EC3F5
:101BA00013FEEF13FF22EBF0A3EAF0A3E9F022EE1D
:101BB000C313FCEF13FD7B017A81794E227B04E491
:101BC000FAF9F8025553FF7801025641EE90A0B39E
:101BD000F0A3EFF02275F0011253ED90A0D2E004D3
:101BE000F0227B017A81794C227B017A8179DC2297
:101BF000EB2FFFEA3EFEE93DFDE83CFC22FBAA0696
:101C0000EA3395E0F9F890A0E52290A0B8E0FCE472
:101C1000024F57E0FCA3E0FDC3EF9DFFEE9C229B2B
:101C2000FFEE9AFEED99FDEC98FC22124F8B90A0EE
:101C3000EDEEF0A3EFF022F0EFA3F0908020E02291
:101C4000908101E0FE908065E022FFE4124F4DE4B8
:101C500022C3EF9405EE64809480227B017A81791F
:101C60005E227B017A80793222908024E054032224
:101C700090A0D8E004F0227B017A80793022FF7CAA
:101C80000002535090A0ABEEF0A3EFF0908150E033
:101C90004420121B857B017A807936128A3590A008
:101CA000B9121A817A807932128A3590A0AFEEF09B
:101CB000A3EFF0D3E0940090A0AFE09404400B9029
:101CC000A0B9E094055003021E8C12B46F90A0B12D
:101CD000EEF0EF121C3920E204C2098002D2099012
:101CE000A04BE0FFA3E0CF121BCD121A5790A059D2
:101CF000E0FEA3E0FF1219A9C39FEC9E4003021D62
:101D000093121A89C004C005C006C00790A0B31280
:101D100018CDD003D002D001D00012196FC004C07A
:101D200005C006C00790A37212187BFFE4124F4D46
:101D3000121892D007D006D005D004124E43C0042A
:101D4000C005C006C007121886D007D006D005D03F
:101D500004124E4390A0BB12566090A0BB1218A76D
:101D600012193A300909121878121BC6121940903C
:101D7000A04D12187BFF90A3351218AFD31256094D
:101D8000501190A0B8E02408F090A0B7E03400F023
:101D9000021CED90A059E0FEA3E0FFD390A0B8E0B4
:101DA0009F90A0B7E09E400CA3E024F8F090A0B76D
:101DB000E034FFF090A05112187BFF90A335121869
:101DC000AFD31256095003021E94121A5790A05115
:101DD00012187B121C4AFBFA79C87842124E43C093
:101DE00004C005C006C00790A0B7121889D007D05C
:101DF00006D005D004124E43C004C005C006C0077B
:101E000090A0AF1218CDD003D002D001D000124D57
:101E10003AC004C005C006C00790A33C121889D080
:101E200007D006D005D004121985121BCC90A0B1A2
:101E3000121AF47804125641C006C00790A0AF12DF
:101E40001995D007D00612195E780412561A121A84
:101E5000CB9FEC9E401C90A0AFE0FEA3E0FF12578A
:101E60002EC006C007121994D007D006125553127F
:101E70001BCC90A04BE0FEA3E0FFD390A0B4E09F6A
:101E800090A0B3E09E400DEEF0A3EFF0128D8B1208
:101E9000C500C32290A0B31218BE1257F190A0B390
:101EA0001219101257F190A0B71218CD121A8DC046
:101EB00004C005C006C00790A0B31218CDD003D04F
:101EC00002D001D00012196FC004C005C006C007BF
:101ED00090A37212187BFFE4124F4D121892D00794
:101EE000D006D005D004124E43C004C005C006C0C1
:101EF00007121886D007D006D005D004124E4390A2
:101F0000A0BB121B0290A0BB1218AF12193A3009E5
:101F1000119081887410F0121878121BC6121940A3
:101F20008005E4908188F090A0ABE0FEA3E0FF7B09
:101F3000017AA079B71226EC1293F57F507E001239
:101F4000BFD57BFF7A8379DB125E877A8379DE9057
:101F5000A0B71219C1125E8712993D500302204D9D
:101F60003009051219F58030121B49128A35EE54DA
:101F70000F90A0ADF0A3EFF090A0B7121AC490A0FC
:101F8000AEE09FFF90A0ADE09EFE120016121C5125
:101F9000500690A0AD121A5A121878FFE4124F4D55
:101FA00079207841121976C004C005C006C0079098
:101FB000A0B7121889D007D006D005D004124E431E
:101FC000C004C005C006C00790A33E121889D00700
:101FD000D006D005D004121985121ACB9FEC9E4072
:101FE0000890A0B5ECF0A3EDF090A0B51219461240
:101FF00057F17A817962121AA01257F190A0B312A8
:102000001AC490A04CE090A04B121B9B12197C901C
:10201000A066E02DFD90A065E03CCD2FFFED3EFEDB
:1020200090A0AD121ABB7A81796F1257F1121C5B26
:102030001219A91257F190A04BE0FEA3E0FF90A067
:10204000B3E06E7003A3E06F60031219F51218BBC2
:102050001257F1123F9912993D4003120B32D322CD
:1020600012C80A12353512CDC7EF6405700302227B
:10207000A074FF90A0B1F0A3F090A0B712566CFF2F
:10208000FFFFFF128E8690A0AEEFF0C208E490A092
:10209000ABF0129503F47003E493F470030222642E
:1020A000EF12951B1294DA12BE2C500302225B121F
:1020B0009528FC740193FD90A009E0FAA3E0FBD3FE
:1020C0009DEA9C403275F01CEF1294D1C3EB9FFF48
:1020D000EA9EFE120016D390A0B2E09F90A0B1E05D
:1020E0009E40141294CA1223FE90A0B1EEF0A3EF0A
:1020F000F090A0ABE0A3F01223C390A0ABE0FD757D
:10210000F01CA4243DF582E5F03400F583E493FB54
:10211000D3EF9B7480F86E98400302225BED12951A
:102120005F1294DA1223ED12954D243EF582E5F00C
:102130003400F583E493FDD3EF9D7480F86E9840EE
:102140000302225B12CDC7BF021A12954D242AF555
:1021500082E5F03400F583E493FF90A004E05F7023
:102160000302225B90A009E0FFA3E090A0AFCFF0B4
:10217000A3EFF012CBF0500D90A0B0E025E0F0906E
:10218000A0AFE033F0129528FC740193FDD390A02A
:10219000B0E09D90A0AFE09C500302225BD208EF1C
:1021A00012955F1294DA1223EDC006C0071223C302
:1021B000D0E02FFFD0E03EFE3395E0FD1295841273
:1021C000953EC000C001C002C0031294CA1223FE93
:1021D000EF7802C333CE33CED8F9FFEE3395E0FD6E
:1021E000FCD003D002D001D000EB2FFFEA3EFEE985
:1021F0003DFDE83C12958490A0AEE0FF90A006E083
:10220000C39FFFE49400FE120016EE3395E0FDFC40
:10221000C004C005C006C007E47F64FEFDFC129543
:102220003E1254C8D003D002D001D000EF2BFFEEF5
:102230003AFEED39FDEC3812958490A0B712958BDB
:1022400012953EC3125609501290A0B312958BA35B
:1022500012566090A0ABE090A0ADF090A0ABE0046F
:10226000F002209230081590A0ADE0FF1295971271
:10227000957D124B7650030223C2801E90A0ACE0E5
:10228000FF12959790A02BE0FF74FFF0A3EFF012E0
:10229000957D124B7650030223C212957D024A6847
:1022A00012B1E290A00BEEF0A3EFF012AFF890A005
:1022B0000DEEF0A3EFF090A00BE0FFA3E090A00FD5
:1022C000CFF0A3EFF090A00DE0FFA3E090A011CF1E
:1022D000F0A3EFF0E4A3F0A3F0A304F0A374E0F004
:1022E00090A013E0FFA3E090A01ACFF0A3EFF0902E
:1022F000A015E0FFA3E090A01CCFF0A3EFF090A00A
:102300002B74FFF0A3E4F090A0ABF0129503F470EF
:1023100003E493F470030223C275F01CEFA4243588
:10232000F582E5F034001294DAC390A00CE090A09E
:102330000B12240FD3EF9405EE64809480507A1230
:10234000954D2437F582E5F034001294DAC390A05D
:102350000EE090A00D12240FD3EF9406EE6480944B
:1023600080505612954D2426F582E5F034001294E3
:10237000DAC390A001E090A000122418503B1295FF
:102380004D1295631294DAC390A003E090A002125C
:102390002418502590A0ABE0FF75F01C1294E412B5
:1023A0009531FF74019390A00DCFF0A3EFF090A0B2
:1023B000ABE012951B12956C2290A0ABE004F002EA
:1023C000230B2290A0ABE075F01CA42426F582E537
:1023D000F03400F583E493FE740193FFC390A001F1
:1023E000E09FFF90A000E09EFE12001622C390A086
:1023F00003E09FFF90A002E09EFE12001622C39011
:10240000A00AE09FFF90A009E09EFE120016229F06
:10241000FFE09EFE120016229FFFE09EFE120016B5
:10242000C3EF940AEE64809480227BFF7A8979ADB1
:1024300012B37890F024E054FEF09083357444F0A9
:10244000908306E090A0B2F0908310E090A0B3F0EB
:10245000908311E090A0B4F0908336E090A0B5F0A6
:10246000908336E054DF12B3AE740CF090833A746C
:10247000601226E39081ADE020E00302269890836D
:10248000117422F09083107413F0E490A0AEF090D9
:10249000A0AEE0FFC394034003022698EF90899812
:1024A0009390A0BBF0908330F0E490A0AFF090A0A8
:1024B000AFE0FF25E0249BF582E43489F583E493C3
:1024C00090A0BCF0EF25E0249CF582E43489F583EC
:1024D000E49390A0BDF090A0BCE0908339F090A070
:1024E000BDE090833AF0E490A0B0F090A0B0E0FF9F
:1024F00025E024A3F582E43489F583E49390A0BE1B
:10250000F0EF25E024A4F582E43489F583E4939088
:10251000A0BFF090A0BEE0908332F090A0BFE0900A
:102520008337F0E490A0C0F074FFA3F0A3F0E49030
:10253000A0B1F090A0B1E0FFC394034003022605D0
:1025400074C32F12B36AE4F0908306EFF09083090E
:10255000E04401F09083107413F01289B890A0B990
:10256000EEF0A3EFF07F017E0012BFD5908310E064
:1025700020E3121289B890A0B912B385C3EF941E5C
:10258000EE940040E09081ADE020E01112B35C12C7
:10259000B39290A0B0F090A0AFF00225FC90830819
:1025A000E05407705190A0B604F0A37483F0A374B4
:1025B00017F0E4FF90A0B6E0FBA3E0FAA3E0F91265
:1025C00052B4FD90A0C2E02DF090A0C1E03400F024
:1025D00090A0B6A3E475F001125403A9F0FA1252C8
:1025E000B4700C12B364E004F090A0C0E004F00FEB
:1025F000EFB405C0800612B35C12B39290A0B1E0B4
:1026000004F002253390A0CBE0FF90A0C0E0D39F60
:10261000401790A0C3E0D39400400EA3E0D39400F1
:102620004007A3E0D39400502390A0CCE0FEA3E0A9
:10263000FFC390A0C2E09F90A0C1E09E501190A067
:10264000CEE06008A3E06004A3E0700312B37290D0
:10265000A0CEE0C39401401DA3E094014017A3E085
:102660009401401112B37290A0B074EEF090A0AF3C
:10267000F090A0AEF090A0B012B3A650030224EBED
:1026800090A0AFE004F0E0C3940450030224AE90A5
:10269000A0AEE004F002248F90A0C7E0908339F050
:1026A00090A0C8E090833AF090A0C6E0908330F00C
:1026B00090A0C9E0908332F090A0CAE090833712D6
:1026C00026E390A0B2E0908306F090A0B3E0908360
:1026D00010F090A0B4E0908311F090A0B5E090834A
:1026E00036F022F07F017E0012BFD52290A0D8EEF6
:1026F000F0A3EFF0A3121BA6C20B121C62128A35C4
:1027000090A0E9121A817A817971128A3590A0EB32
:10271000EEF0A3EFF090A0EB121AC490A0EAE09FB5
:1027200090A0E9E09E5003022997121C6994024090
:102730000302282D90A0D9E024CEFD90A0D8E0344B
:10274000FFFCE4124F52121972C004C005C006C04B
:102750000790A37212187BFFE4124F4D121892D00B
:1027600007D006D005D00412189B124D3A124F8B99
:1027700090A0DD12566090A0D9E02432FD90A0D840
:10278000E03400FCE4124F52121972C004C005C0BC
:1027900006C00790A37212187BFFE4124F4D121867
:1027A00092D007D006D005D00412189B124D3A12D1
:1027B0004F8B12187224101219641219D01256601D
:1027C00090A0DD12187BFF1219D51218AF124C45DC
:1027D000C004C005C006C007121878FFE4124F4DB0
:1027E000121892D007D006D005D004124EE0600235
:1027F00050030228D290A0E112187BFF1219D512C3
:1028000018AF124C49C004C005C006C007121878A2
:10281000FFE4124F4D121892D007D006D005D00415
:10282000124EE040030228D2D20B0228D27B017A5A
:1028300086793A128A35EE541FFEE4FCFD90A0E141
:1028400012566090A33CE0FEA3E0FFE4FCFD90A0E4
:10285000E11218AF1254C8E47B64FAF9F81254C8B4
:1028600012187224101219641219D012566090A016
:10287000E112187BFF1219D51218AF124C45C00493
:10288000C005C006C007121878FFE4124F4D121899
:1028900092D007D006D005D004124EE0603440320A
:1028A00090A0E112187BFF1219D51218AF124C49F3
:1028B000C004C005C006C007121878FFE4124F4DCF
:1028C000121892D007D006D005D004124EE0500264
:1028D000D20B200B0302299790A0E112187BFFE492
:1028E000124F4D7B527A497985783F12193A90A060
:1028F0005112187BFF90A3351218AFD3125609401E
:102900000A90A05112187BFF121940908020E0908D
:10291000A33530E20B12187BFF780112561A80049F
:1029200012187BFF1219D512566090A37212187BF1
:10293000FF1219D51218AF124D3AC004C005C006D7
:10294000C00790A0E91218CDD003D002D001D0006A
:10295000124D3AC004C005C006C00790A0EB121883
:1029600089D007D006D005D004124E43E4FBFA7993
:10297000807845124E437B007A1B7937784B124E94
:1029800043E4FBFA79807841121A1690A0DA121902
:10299000E0EE8FF012547C2290A0BE12566090A000
:1029A000BEE0FCA3E0FDA3E0FEA3E0FF22E4FEFD09
:1029B000FC90A0CDE0F8A3E0F9A3E0FAA3E0FB12BD
:1029C00054C890A0C5E0F8A3E0F9A3E0FAA3E0FBA7
:1029D00022E49080F8F090A0BAE075F003A404908F
:1029E000A0B7F090A0BD7401F0A37480F0A37400B0
:1029F000F090A0B7E0FF90A0BEE48FF00253ED90FE
:102A0000A0C3E0FCA3E0FDC3EF9DFFEE9CFEC3EF7F
:102A10009464EE940022EE5407F0A3EFF07B0122C1
:102A2000FBE0FFC374FF9FFFE49400FE7C007D90F9
:102A30001253507DFF125362EF24602290A0BCE03D
:102A4000FFE4FCFDFEEB2FFFEE3AFEED39FDEC3826
:102A5000FC90A0C502566074F09BFEC3EF9EF09000
:102A6000A0B774FFF022FF90A0BDE0FBA3E0FAA3A3
:102A7000E0F922E0FCA3E0FDC39FEC9E2290F00A67
:102A80007455F022EB2FFFEA3EFEED39FDEC38FCE9
:102A900002566090A0BA12566090A36EE090A0B269
:102AA000F090A371E090A0B3F022E0FEA3E0FFC39A
:102AB00022E0FEA3E0FF7C007D0A0253629BFFEE52
:102AC0009AFEED99FDEC98FC025660EE540FF0A3CF
:102AD000EFF022E0FCA3E0FDC3EF9DFFEE9C222D72
:102AE000FDE03CCDC39FFFED9EFE90A0CFF0A3EF95
:102AF000F02290A0B8E0FEA3E0FF2290A36FE0C315
:102B000094642290A0C7025660C390A0D0E09DFFBD
:102B100090A0CFE09CFE2290A0B6E0FEA3E0FF22B2
:102B20007B017A8079D7229081067442F022A3E05B
:102B3000FCA3E0FD22FDE43EFCEBC39DE49C22EE01
:102B4000540FF0A3EFF022EFF090A0C2740AF0222D
:102B500012566090A0D4E024FC543F22A3F090A031
:102B6000B2E0FCA3E0FD229080F9F07B017A80794D
:102B7000FC2290A0C7E09F90A0C6E09E227B017A35
:102B800080793222E0FEA3E0FFED9FEC9E227B01E4
:102B90007A80793622FFE4F0A3EFF022543F90A030
:102BA000B1F090A37022E4FCFD025660E0FCA3E0CB
:102BB000FDE4024F5212CE0F90A0C0EFF012CE15DE
:102BC00090A0C1EFF012CE1B90A0C2EFF09080FA5F
:102BD00074F8F0122B7D128A3590A0CD122BA6E44A
:102BE00090A0BAF090A0BAE0FFC394034003022D76
:102BF000A0EF1229DA122A671252B490A0B9F0900D
:102C0000A0B9E0FDD394075003022CB31229D112CE
:102C10002A67ED122DA2122A7D12993D5004D21678
:102C200080139080F8E020E704D20980081289B868
:102C30001229FF40E1200902D216301603022D07A7
:102C4000E490A0B8F090A0C912566C00000000E417
:102C500090A0B7F090A0B7E0FFC394085045EF12E2
:102C60002B67128A35E4FCFD122A5190A0C5122967
:102C7000A17808125641122A519080FBE090A0BC26
:102C8000F01229C2122A3C7F031229ADD312560931
:102C9000400890A0B874FFF0800990A0B7E004F05D
:102CA000022C5490A0B8E0700A90A0B9E024F8F08B
:102CB000022BFF90A0B9E07005D216022D07E49018
:102CC000A0BBF090A0BBE0FDC394104003022D6EAA
:102CD0001229D190A0B9E0C39D122A66EF122DA24D
:102CE000122A7D12993D5004D21680139080F8E08C
:102CF00020E704D20980081289B81229FF40E12098
:102D00000902D21630161A90A0C0E0FF12CDEB9047
:102D1000A0C1E0FF12CDF190A0C2E0FF12CDF7C339
:102D200022E490A0B8F090A0C912566C00000000F8
:102D30007407122B67128A35E4FCFD122A5190A009
:102D4000C51229A17808125641122A519080FBE041
:102D500090A0BCF01229C2122A3C7F0A1229ADD3DE
:102D6000125609500990A0BBE004F0022CC390A0B9
:102D7000BAE075F003A40490A0B7F090A0BBE0FF08
:102D800090A0B9E0C39F90A0B81229E290A0B8E04B
:102D9000122A66EF12531C90A0BAE004F0022BE452
:102DA000D32212531C90A0BAE0F40475F008A424B6
:102DB0009090A0B7F09080F8F0C2091289B890A066
:102DC000C3EEF0A3EFF02290A0B1EFF090A0BB1201
:102DD000566C0000000090A0BF12566C000000006E
:102DE00090A0C312566C0000000090A0CB12566C4D
:102DF000FFFFFFFF9080D9E0543F90A0B2F0122B6C
:102E00002790A0B37401F090A0B1E0FF90A0B3E0D0
:102E1000C39F4003022FB4122AFB5007E0FF04F0C7
:102E2000125885E490A0B6F01289B890A0CFEEF0C9
:102E3000A3EFF0122A7D12993D5002802090810666
:102E4000E020E10890A0B67401F0800B1289B890E0
:102E5000A0CF122A0240DC90A0B6E07004D216C3C4
:102E60002290A0B3E0FF90A0B2E02F122FBE122B51
:102E7000277B017A817915128A35E4FCFD122B0338
:102E800090A0C71229A17810125641122B0390A0CE
:102E9000C71229C5C000C001C002C0037B017A81EE
:102EA0007913128A35E4FCFDD003D002D001D000A2
:102EB00090A0C7122A8490A0B6E014543F90A0B509
:102EC000F090A0BB1229A1A312566090A0B71229BE
:102ED000A1A312566090A0C71229A190A0B71256C4
:102EE0006090A0BB1229A1780112561AC004C00537
:102EF000C006C00790A0B71229A1780212561AD0B6
:102F000003D002D001D000EF2BFFEE3AFEED39FDE9
:102F1000EC38FCC004C005C006C00790A0BF122951
:102F2000A1780212561AD003D002D001D000EB2FA4
:102F3000FFEA3EFEE93DFDE83CFC122B0390A0B306
:102F4000E0C394045003022F9F90A0C31229A1A3B1
:102F50001229C5D312560990A0C3E0400D1229C60C
:102F6000122B2EA3E0FEA3E080091229A2A31229AE
:102F7000C5C3EF90A0C3122ABD90A0CB1229A19087
:102F8000A0C31229C5C3125609501490A0B5E090F1
:102F9000A0B4F090A0C31229A190A0CB12566090CB
:102FA000A0C71229A190A0C312566090A0B3E0045C
:102FB000F0022E0790A0B4E014122FBED322543F8B
:102FC000FF90A0B6F012CDE52290A0AEEFF0A3EDF9
:102FD000F0A312BA5B7F007E1B7D377C4B12BA7365
:102FE0007E0412BA48C3125609400B90A0B8740A66
:102FF000F0A3740480147E0112BA48C312560990DB
:10300000A0B8400C7408F0A37401F0A3E4F0800AA7
:103010007404F0A3E4F0A37410F090A0B9E0FCA352
:10302000E0FDE4124F5212BA6A7F007E1B7D377CAE
:103030004B124E43C004C005C006C00790A0B0129A
:10304000BA5BD007D006D005D00412BA7390A0B8EE
:10305000E0C3940F502AE47FFFFE12BA4A125609C9
:10306000401E90A0B4E0FCA3E0FDA3E0FEA3E0FFBF
:10307000780112561A12BA8290A0B8E004F080CDFE
:1030800090A0B8E0FF1313543FFDEF5403FE90A04F
:10309000AEE0FB64017044EE25E0FE90807EE054DB
:1030A000F990A0B8F0AF06E04F90807EF090807F5E
:1030B000E054FC90A0B8F0E04410AE054E90807F44
:1030C000F090A0B4A3A3A3E0908074F0908075E08A
:1030D000F0908C80E04440F00231B2EB6402600377
:1030E0000231B27D0F90807EE0540FF090807FE03F
:1030F0005453F0EDC39480400F90807EE0F09080B8
:103100007FE04408F002319BEDC39440400DED9404
:1031100080500890807EE044608035EDC39420406C
:103120000DED9440500890807EE044408022EDC335
:103130009410400DED9420500890807EE044208053
:103140000FEDC394084013ED9410500E90807EE074
:10315000F090807FE04404F08041EDC39404400D82
:10316000ED9408500890807EE044408028EDC394A0
:1031700002400DED9404500890807EE044208015BC
:10318000EDC39401400BED9402500690807EE080E8
:103190000490807EE0F090807FE0F090A0B4A3A344
:1031A000A3E0908076F0908077E0F0908C80E0440F
:1031B00080F0E490A0AFF022908024E090A0ACF0EA
:1031C000E4908024F07F0C7EBB7D02FC7B017A8B37
:1031D0007921128976908605E090A353F090871AA2
:1031E000E090A34EF090871DE090A34FF0E490860E
:1031F00005F090871A7420F090871D7415F0908860
:10320000A6E090A0ADF0908737E090A0AEF0908758
:10321000247440F0908737E04402F09088A6E044A0
:1032200080F07B017A8879A0128A3590A0AFEEF009
:10323000A3EFF012C579128A3590A0B1EEF0A3EF9A
:10324000F07B017A8879A07D017C001257F112C5CC
:10325000797D017C001257F1E49088A4F09088A554
:10326000F07F02FE12BFD59088A6E030E01E90A04D
:10327000AB74FFF090A0ABE0FFD3947F402B1233F0
:103280005530E02590A0ABE014F080E8E490A0ABCE
:10329000F090A0ABE0FFC39480500E12335520E0B5
:1032A0000890A0ABE004F080E89088A6E030E11E32
:1032B00090A0AB74FFF090A0ABE0FFD3947F402BC5
:1032C00012336630E12590A0ABE014F080E8E49082
:1032D000A0ABF090A0ABE0FFC39480500E12336619
:1032E00020E10890A0ABE004F080E89088A4E064BE
:1032F0007F6004E0B48005E49088A4F09088A5E0A5
:10330000647F6004E0B48005E49088A5F090A0ACF0
:10331000E0908024F090A353E0908605F090A34EB7
:10332000E090871AF090A34FE090871DF090A0AF37
:1033300012C56D1257F112C57990A0B1E0FCA3E05F
:10334000FD1257F190A0ADE09088A6F090A0AEE0FD
:10335000908737F0229088A4EFF07F027E0012BFA2
:10336000D59088A6E0229088A5EFF07F027E00121B
:10337000BFD59088A6E02212CE0F90A0BCEFF0122D
:10338000CE1590A0BDEFF012CE1B90A0BEEFF012B4
:10339000CE0F90A0B9EFF012CE1590A0BAEFF012B8
:1033A000CE1B90A0BBEFF0E490A0B8F0E490A0B7E3
:1033B000F01289B890A0BFEEF0A3EFF090810674F0
:1033C0006EF0122A7D12993D5004D216801A908117
:1033D00006E020E10890A0B77401F0800B1289B8D4
:1033E00090A0BF122A0240DA90A0B7E07002D21675
:1033F00030160512351CC322E490A0B7F09081135B
:10340000E090A0B9122A20FFE43EAD07122B3850FD
:1034100003023515EBC394F0500C90A0B9E0FF9473
:10342000084003122A57EBD394F8401190A0B9E05A
:1034300094F85009EB2408FFE02F122A5E908114C3
:10344000E090A0BA122A20122B355003023515EB5A
:10345000C394F0500C90A0BAE0FF94084003122AE5
:1034600057EBD394F8401190A0BAE094F85009EBD0
:103470002408FFE02F122A5E908115E0FB90A0BB8C
:10348000122A21122B355003023515EBC394F0504C
:103490000C90A0BBE0FF94084003122A57EBD39492
:1034A000F8401390A0BBE094F8500BAF03EB240856
:1034B000FFE02F122A5E90A0B7E0703290A0B9E032
:1034C000FFC39408404FEFD394F8504990A0BAE05E
:1034D000FFC39408403FEFD394F8503990A0BBE06D
:1034E000FFC39408402FEFD394F85029D32290A023
:1034F000B9E0FF12CDEB90A0BAE0FF12CDF190A0A1
:10350000BBE0FF12CDF790A0B8E004F0E0C39480D8
:1035100050030233AC12351CD216C32290A0BCE07B
:10352000FF12CDEB90A0BDE0FF12CDF190A0BEE068
:10353000FF12CDF72212A23990A0BBEFF0642160F8
:1035400008E064416003023634908734E020E103F0
:10355000023618908744E0546070030235DE90A371
:103560007DE0707A9086B5E04404F090811BE044E1
:1035700020F0908020E030E26B908745E054C064FA
:10358000807B017A80794B7023908A4F12C353124B
:1035900057F112C3491257F112C366908A5312C3EE
:1035A000521257F112C36D908A558024908A4712A7
:1035B000C3521257F1908A4912C34C1257F112C3E9
:1035C00066908A4B12C3521257F112C36D908A4D06
:1035D00012C3521257F19080537409F0800B12C33A
:1035E0005A54DFF0E4908053F0908748E0540FFF86
:1035F000908608E0540FFEEFB40106EE4450FE80C2
:1036000008EFB40304EE44F0FEAF06908608EEF037
:1036100090871A7420F0801812C35A54DFF0E49097
:103620008053F0908608E0540FF090871A7410F0E1
:10363000E40236CD90A0BBE0FF64516008EF646106
:1036400060030236C212C35A4420F09080537409BA
:10365000F0E4908054F0908055F07B017A807936C8
:10366000128A35C3EE94057B017A80794B40239012
:103670008A4F12C3521257F112C3491257F112C3A3
:1036800066908A5312C3521257F112C36D908A5535
:10369000802A908A4712C3521257F17B017A8079AF
:1036A0004D908A4912C3521257F112C366908A4B49
:1036B00012C3521257F112C36D908A4D12C35202B7
:1036C00057F112C35A54DFF0E4908053F0908054C5
:1036D000F0908055F022E490A0BFF0A3F0A3F0FF9B
:1036E00012CDFDE4FF12CE03E4FF12CE09C2169004
:1036F00081BB7480F09081BC7403F0908023E03033
:10370000E7079081BD74808004E49081BDF09081D2
:10371000BFF0122B49E490A0B9F0A3F0A3F0A3F0FE
:10372000A3F0A3F01289B890A0B7EEF0A3EFF012C7
:103730002A7D7F027E0012BFD512993D5005D21618
:1037400002383512CE2190A0BF123860400912CE47
:103750002190A0BF122B4712CE2790A0C012386034
:10376000400912CE2790A0C0122B4712CE2D90A058
:10377000C1E0C39FFFE49400FE120016D3EF940350
:10378000EE64809480400C12CE2D90A0C1EFF0A387
:10379000740AF090A0C2E090A0BFB40A20E090A00C
:1037A000B9122B9590A0C0E090A0BB122B9590A0D1
:1037B000C1E0FF90A0BDE4F0A3EFF08033E0FF9004
:1037C000A0BAE02FF090A0B9E03400F090A0C0E0E3
:1037D000FF90A0BCE02FF090A0BBE03400F090A0E0
:1037E000C1E0FF90A0BEE02FF090A0BDE03400F05B
:1037F00090A0C2E014F0702190A0B9122AB190A05C
:10380000BFEFF090A0BB122AB190A0C0EFF090A043
:10381000BD122AB190A0C1EFF090A0C2E0601612D4
:1038200089B890A0B7122AD3FEC3EF942CEE94016E
:10383000500302372FE49081BBF09081BCF020163A
:103840001E90A0BFE02404FF12CDFD90A0C0E02494
:1038500004FF12CE0390A0C1E02404FF12CE09227F
:10386000E0C39FFFE49400FE120016D3EF9403EE32
:103870006480948022122B7D128A35EE540790A02A
:10388000C7122A197A807936128A35EE540F90A021
:10389000C9122A197A80792E128A35EE540790A01F
:1038A000CB122A197A807934128A35EE540F90A0FF
:1038B000CD122A197A81790C128A35EE540790A01C
:1038C000C5122A197A817910128A35EE540F90A008
:1038D000C3122A197A817908128A35EE540790A00A
:1038E000C1122A197A81790E128A3590A0BF122B43
:1038F0003F90A0C7122AAA90A0C6E09F90A0C5E062
:103900009E504512B46F90A0C1122A73503A90A0F5
:10391000CB122B84402390A0C6E090A0C5122ADFD2
:1039200090A0C7122A735020122B0990A0CCE02F30
:10393000F090A0CBE03EF0800F90A0C1E0FFA3E0AC
:1039400090A0CBCFF0A3EFF090A0C9122AAA90A02C
:10395000C4E09F90A0C3E09E504512CDAB90A0BFA5
:10396000122A73503A90A0CD122B84402390A0C409
:10397000E090A0C3122ADF90A0C9122A735020122F
:103980002B0990A0CEE02FF090A0CDE03EF0800F6C
:1039900090A0BFE0FFA3E090A0CDCFF0A3EFF09008
:1039A000A022E0FEA3E0FF90A0CD122A7350028077
:1039B0000F90A024E0FEA3E0FFD3ED9FEC9E400813
:1039C00090A0CDEEF0A3EFF090A0CDE0FEA3E0FF3D
:1039D00012CAF490A0CBE0FEA3E0FF12C21212CCF8
:1039E0001990A013EEF0A3EFF012CC2390A015EEE7
:1039F000F0A3EFF022122B7D128A3590A0B9122A83
:103A0000167A807936128A3590A0BB122ACB128A98
:103A100083E4908106F090A0BD7430F090A0BDE0EA
:103A2000FFC394A05074908107EFF0E490A0BEF023
:103A300012BD4950427B017A81790C128A3590A0DF
:103A4000B3122A167A817910128A3590A0B1122AFF
:103A5000CBD390A0B4E0940090A0B3E094014013C5
:103A6000D390A0B2E0940090A0B1E094014004D2C1
:103A7000098006C2098002C32230090C90A0BEE072
:103A800004F0E0C3940540A890A0BEE06405600A7D
:103A900090A0BDE02410F0023A1C90A0BDE0D394A9
:103AA000A040012212BD4950457B017A81790C1258
:103AB0008A35EE540790A0B7122A197A817910122C
:103AC0008A3590A0B5122B3F90A0B1122AAA90A0DF
:103AD000B6E090A0B5123B57505E90A0B3122AAA50
:103AE00090A0B8E090A0B7123B574004804AC32290
:103AF0007B017A81790E128A35EE540F90A0B112B3
:103B00002A197A817908128A35EE540790A0B3F009
:103B1000A3EFF090A0B3E0FCA3E0FD1229CAA3E05C
:103B2000FFA3E090A0C5CFF0A3EFF090A0B1E0FE1E
:103B3000A3E0FF12931B5007D217123875C32290CF
:103B4000A0B1E0FEA3E0FF12CAF490A0B3E0FEA390
:103B5000E0FF12C212D3229FFFE09EFE120016D396
:103B6000EF9405EE648094802290A0B2EFF0A3EC75
:103B7000F0A3EDF0A3EAF0A3EBF090A0BA12566C1C
:103B80000000000090A0B9E06464705190A0B5E01E
:103B9000FEA3E0FFC390A0B4E09FFF90A0B3E09E1F
:103BA000FE90A0B2E0FD7C0012572EE47B64FAF98F
:103BB000F8125553A804A905AA06AB0790A0B5E0D2
:103BC000FEA3E0FFE4FCFDEB2FFFEA3EFEED39FD36
:103BD000EC3812B93E90A0BAA3A3023C7890A0B2F0
:103BE000E0FF7464C39F50047F64800090A0B2EF34
:103BF000F090A0B9E0FEEFD39E4041EEFF90A0B25E
:103C0000E09FFFE49400FE90A0B7E0FCA3E0FDC3BA
:103C100090A0B4E09DFD90A0B3E09CFC12B932C02E
:103C200006C00790A0B9E0FFC374649FFFE494004E
:103C3000AB07FAE4F9F8D007D006803112B950FE8C
:103C4000C39F503190A0B5E0FCA3E0FDC390A0B8A5
:103C5000E09DFD90A0B7E09CFCEEFF7E0012B93223
:103C6000C00790A0B9E0FBE4FAF9F8D00712555369
:103C700012B93F800990A0B7E0FEA3E0FF2212B97D
:103C800015FF125553AC00AD01AE02AF03E47B0546
:103C9000FAF9F8C3125609501112B91B240AFFE4AD
:103CA0003EFEE43DFDE43C12B93E12B950D39F12F2
:103CB000B915FF400E12555390A0B8E02FFF90A009
:103CC000B7800C12555390A0B6E02FFF90A0B5E03E
:103CD0003EFE22122B20128A3590A0B8EEF0A3EF00
:103CE000F0122AF290A0B4EEF0A3EFF0A3EEF0A34E
:103CF000EFF090A0BA12566C0000000090A0C21223
:103D0000566CFFFFFFFF90A0B9E024FEF090A0B832
:103D1000E034FFF0E490A0B1F0122AF2129886127B
:103D200045E290A0BE125660301602C32212299EB0
:103D300090A0BA1229C5C3125609501590A0B8E038
:103D4000FFA3E090A0B4CFF0A3EFF012299E122AB7
:103D50009312299EA31229C5D3125609401612297F
:103D60009EA312566090A0B8E0FFA3E090A0B6CF4B
:103D7000F0A3EFF090A0B9E004F0700690A0B8E0D6
:103D800004F090A0B1E004F0E0C39404408B90A054
:103D9000B4E0FEA3E0FF90A0B8EEF0A3EFF090A097
:103DA000B6122AD3FE120016EF64014E600A90A0EC
:103DB000B8E0F0A3E054FEF0122AF2129886122A1C
:103DC000F290A0B4E06E7003A3E06F60091245E2C8
:103DD000122998122A93122B8E128A3590A0B4EED3
:103DE000122A197A807932128A3590A0B6EEF0A3A1
:103DF000EFF090A0B4E0FEA3E0FF122B2E12572E9E
:103E0000E47B40FAF9F81254C812299890A0BA122B
:103E100029C5C3125609500E90A0B2E02418122BE7
:103E20009C7420F0800C90A0B3E024F8122B9C74BA
:103E300010F090A0B1E0FF12CDE5D32290A0B0EF3A
:103E4000F090A33BF012CE535003023F5A12C859D0
:103E50009081A7E090A0B2F0E49081A7F07F0AFEE5
:103E600012BFD590A0B2E09081A7F090A0B0E01270
:103E700057023E94113E9F123EAB133EB4213ECBFF
:103E8000313ED7323EE3333EEB413EFA513F0561CE
:103E900000003F0E12C4DBE490A0B1F0023F0E120E
:103EA000C4DB90A0B17401F0023F0E123F5B7402BC
:103EB000F0023F0E9081997443F090871A7420F0BD
:103EC000740212C4E87403F0023F0E12C4DB90A027
:103ED000B17404F0023F0E12C4DB90A0B17405F07F
:103EE000023F0E123F5B7406F08023744312C4DD60
:103EF000740312C4E87407F0801412C4DB123F800C
:103F00007408F0800912C4DB123F807409F07F0E40
:103F1000E4FEEEC39F503CEE75F003A42426F58228
:103F2000E4347EF583E493FB740193FA740293F90D
:103F300090A0B1E075F00EA42450F582E4347EF533
:103F400083E5822EF582E43583F583E49312531CD6
:103F50000E80BF7F507E0012BFD52290819974429F
:103F6000F090871A7410F0908021E04440F07F02B6
:103F70007E0012BFD5908021E054BFF090A0B12206
:103F8000908021E04440F07F027E0012BFD59080F7
:103F900021E054BFF090A0B122121C62128A359029
:103FA000A0C1EE121C3730E21490A0C1E0FEA3E0E5
:103FB000FFEE121B9F90A0C1EEF0A3EFF07B017A01
:103FC000817971128A35AB07AA0690A0C1121AD660
:103FD0009BEC9A908190E040054420F0800354DFF0
:103FE000F0AE02AF03D3ED9BEC9A5011908020E02D
:103FF00020E20A908150E030E5030240EF9080F526
:10400000E090A0BFF09080F5E054FEF090A33E1247
:1040100019957F407E9CFD1218F812BFD57B017A5E
:1040200081797712B9FE90A0C5EEF0A3EFF090A0D1
:10403000C5121A50C4540F90A0C0F0EC540FAF0535
:1040400090A0C3F0A3EFF0121BE212B9FE90A0C53E
:10405000EEF0A3EFF090A0C0E0FF7E0090A0C5E0DE
:10406000FCA3E0FD12535090A0C4E02FF090A0C339
:10407000E03EF0A3E02480F090A0C3E03401F09093
:104080008020E030E226121BE212B9FEEEC313FEDE
:10409000EF13FF90A0C1EEF0A3EFF0A3E0FEA3E0CA
:1040A000FF90A0C1121C13A3F0A3EFF090A0C5E0F5
:1040B000FAA3E0FB121B5890A0C0EFF0121B58901F
:1040C000A0C3ECF0A3EDF090A0C0E0908151F07B94
:1040D000017A81795290A0C3E0FCA3E0FD1257F170
:1040E00090A0BFE09080F5F0908150E054BFF022A6
:1040F000748B129B0A7480F07489129B369081EA4B
:10410000E04440F090800A7488F090F0A8747FF04A
:10411000740FF07F147E0012BFD5E490F0A8F090E9
:1041200081EAE054BFF090800A7401F0908012742C
:1041300081129AF890A33BE0FF64116005EF6412CE
:10414000706E90F0A9E0D3940A500890F0AAE09421
:1041500000405D90F0A8748FF07F147E0012BFD5F0
:1041600090A33BE0B4111590F0ADE0D39400400C67
:10417000E0940A500712C29B7F11802790A33BE076
:104180006412702C908B57748BF012CBC474101285
:10419000421EFFBF201212B46F129AED400A12C2E3
:1041A0009B7F12123E3CD32212CBCFE4908B57F070
:1041B00090A33BE0FF64136005EF6451705E90F0E4
:1041C000ABE0D3940A500890F0ACE09400404D74FA
:1041D0008B129B3690800AE04408F0741812421E3D
:1041E00064207029129075502412B46F129AED4019
:1041F0001C12C29B90A33BE0B413047F1380099070
:10420000A33BE0B451057F51123E3CD32290801273
:104210007481F090800AE054F7129AF8C3229080DB
:1042200000F09081967461F07F327E0012BFD590CD
:10423000819AE054E022201D0302436CC21D90A32A
:1042400076E0D3940540037405F090A376E0FF7008
:104250000A7418129B7DF0A3F08061EFB401097419
:1042600008129B7D74188050EFB402097420129BD1
:10427000A174088043EFB403097410129BA1742049
:104280008036EFB404097428129BB174108029EFB2
:10429000B405097430129BB17428801CEFB4060E6B
:1042A00090A0AC7438F0A3E4F0A37430800AE490DA
:1042B000A0ACF0A3F0A37438F0A3E4F0EFB40507CA
:1042C000E490A0ACF0A3F0129BAA90A0ACE0FEA3F7
:1042D000E0FF12BDF490A0ACE0540FFEA3E04E70DE
:1042E0000812436DE4FD1280BBE490A0B0F0A3F08F
:1042F000C390A0B0E09408503012436D90A0B0E09D
:10430000FCA3E0FD2FFFEC3EFEE42DFDEC34A8FC09
:10431000E490A0B7F0FB12751A90A0B1E02400F071
:1043200090A0B0E03401F080C71289D790A0ADE032
:1043300090A0AC129BFA7D55127D6790A0AEE0FE76
:10434000A3E0FF12BDF41289D790A0AFE090A0AE19
:10435000129BFAFD127D6790A376E0FF04F0EFC395
:1043600094054002E4F012C039129BAA221289D7A8
:1043700090A0ACE0FEA3E0FF2290A35EE0640760A3
:104380000312B2FF90A35EE024FE604314700302A8
:1043900044101470030244A314700302445A1470AE
:1043A000030244AB240560030244AE90A2F7E0FF91
:1043B00024FB6018146007240560030244AE12C396
:1043C00094EFF01289B812C38002C72E02A52C12F6
:1043D000C389600302447490A2F7E024FA700302D8
:1043E00044AE240424FA50030244AE1289B890A3C8
:1043F0005BE0FCA3E0FDC3EF9DFFEE9CFED3EF94DA
:1044000064EE940050030244AE90A35E7403F02265
:1044100090A35AE030E0030244AE12BA9290A2F7A1
:10442000E014602824FB500860221460260244AE89
:1044300012206012B5215002800A12AC11500512F0
:10444000BD0D800F90A2F77407F08007740212C3AD
:1044500074803690A35E7405F02290A2F7E0FF24EA
:10446000FE24FD5012601514600714602F2406709E
:104470003D12C394EF801290A35E801512A52C12FA
:10448000CE4790A35E500A7402F01289B812C3801E
:10449000227401F0E4FF12AC8802C54990A35E7457
:1044A00001F02212C389600602CA6912CA5A229018
:1044B000A035E0FEA3E0FF7C007D3C12572E90A0CB
:1044C00034129B86129BEC125553129BBAE490A0B7
:1044D000AFF0A3F090A0AF129BF394FFEE940F50B7
:1044E00026E42FFFEE3430FE7B017AA079B11287EB
:1044F0005590A0B1E0701090A0B0E004F070D5909D
:10450000A0AFE004F080CD90A0AB129BD8C000C05B
:1045100001C002C003A3E0FEA3E07803C333CE339F
:10452000CED8F9FFE4FCFDD003D002D001D000EBDF
:104530002FFFEA3E129B99129BBA90A0B1E0FBB408
:10454000FE0B90A0AB129B6124010245AAEBB4FCC8
:104550000A90A0AB129B612402804F90A0B1E0FBB7
:10456000B4F80A90A0AB129B612403803DEBB4F039
:104570000A90A0AB129B612404802F90A0B1E0FBB5
:10458000B4E00A90A0AB129B612405801DEBB4C07F
:104590000A90A0AB129B612406800F90A0B1E0B4FA
:1045A000801590A0AB129B612407FFE43EFEE43D22
:1045B000FDE43CFC129BBA90A0AB129B61129BEBFA
:1045C0001254C8129BBA129B58FF12555390A03236
:1045D000EEF0A3EFF0129B58FF12555390A031EB71
:1045E000F02290A0CE12566C0000000090A0CA12DB
:1045F000566CFFFFFFFFE490A0D4F0FF12CDE51250
:104600002B2790A0D47404F090A0D4E0C39442402F
:10461000030246F7122AFB5007E0FF04F012588508
:10462000C2091289B890A0D2EEF0A3EFF0122A7D51
:1046300012993D50028019908106E020E104D209D0
:10464000800B1289B890A0D2122A0240E0200908FB
:10465000D216E4FFFEFDFC2290A0D4E0FF12CDE5CF
:10466000122B277B017A817915128A3590A0C61208
:104670002BA690A0C61229A1781012564190A0C670
:1046800012566090A0C61229C5C000C001C002C069
:10469000037B017A817913128A35E4FCFDD003D0C3
:1046A00002D001D00090A0C6122A8490A0CA12297C
:1046B000A190A0C61229C5C3125609500E90A0C6DB
:1046C0001229A1A3122B5090A36EF090A0CE122914
:1046D000A190A0C61229C5D3125609401090A0C6B9
:1046E0001229A190A0CE122B5090A371F090A0D4CB
:1046F000E02404F002460890A0CA1229C5122B2E0D
:10470000A3E0FEA3E0C390A0C6122ABD90A0C612EB
:1047100029A122122B8E128A3590A0B2EEF0EF1250
:104720002B5C25E0FEEC33A3F0A3CEF07B017A8175
:1047300079171257F1122B20128A3590A0B6EEF09D
:10474000A3EFF0122B1790A0BAEEF0EF122B5CD370
:10475000EF9DEE9C5011ED2410FFE43CFE90A0B6BE
:10476000F0A3EFF0129886E490A0B1F0128A8312C1
:10477000BD4940030248067B017A817910128A35CF
:10478000EE540F90A0B8F0A3EFF0908119E0FF5421
:10479000C0C413135403FEEF543FFFEE607CEEB42D
:1047A0000126EFFD90A0B7E02DF090A0B6E0340018
:1047B000F090A0B4E0FCA3E0FDD390A0B7E09D9002
:1047C000A0B6E09C4002802EEED39401402090A041
:1047D000B7E09FFF90A0B6E09400FEF0A3EFF0D307
:1047E00090A0B3E09F90A0B2E09E40028008122B00
:1047F0001712C441500890A0B174FFF0801C122B16
:1048000017129886800512482AC32290A0B1E004AE
:10481000F0E0C39420500302476C90A0B1E0B4FFD5
:104820000712482AD217C322D32290A0BAE0FEA3CF
:10483000E0FF1298862290A0B5EEF0A3EFF0128D63
:104840008B90A0B5E0FFA3E090A333CFF0A3EFF0EF
:104850007B017A817966128A3590A0B7EEF0A3EFDA
:10486000F090A0B5121AC494E8EE9403502090A0E2
:1048700049E0FDA3E090A0B9CDF0A3EDF090A0B782
:10488000E0FDA3E090A0BBCDF0A3EDF0806090A090
:104890004B121AFAEF24F4FFEE3401121967E47B8D
:1048A000E87A03F9F812555390A0B9EEF0A3EFF0AF
:1048B00054FEFF90A0B9EEF0A3EFF01219A0C39F31
:1048C000EC9E500890A0B9ECF0A3EDF090A0B912C6
:1048D0001AC490A04AE090A049121B9B90A0B8E097
:1048E0002FFF90A0B7E03E90A0BBF0A3EFF07B01BC
:1048F0007A817973128A3590A0BBE0B5061AA3E0DD
:10490000B507157B017A817975128A3590A0B9E0D7
:104910006E7003A3E06F603912B6D39084B0E044A8
:1049200001F07A81797390A0BB121B501257F17B72
:10493000017A81797590A0B9E0FCA3E0FD1257F1EE
:104940007F287E0012BFD512B6D39084B0E054FE0B
:10495000F022124A52E490A0B2F0E490A0B1F0121A
:10496000CD4D12CD4512C8D712CD557F05124A5EE6
:10497000500990A0B1E04408F0803AEED3940F4083
:104980000EEE9437500990A0B1E04410F08026EE6E
:10499000D39437400EEE9453500990A0B1E04420D8
:1049A000F08012EED39453400CEE946B500790A01D
:1049B000B1E04440F07F06124A5E500990A0B1E099
:1049C0004401F08026EED3940F400EEE9437500948
:1049D00090A0B1E04402F08012EED39437400CEE88
:1049E0009453500790A0B1E04404F090A078E030D8
:1049F000E00C90A0B1E05411FFBF1102E4F0125896
:104A00008F90A0AFE4F0A3EFF090A37CE0FF90A024
:104A1000B1E0FE6F600E90A37CEEF0124A5290A0BF
:104A2000B27432F090A0B2E060221289B890A0ADCA
:104A3000E0FCA3E0FDC3EF9DFFEE9CFE90A0B2E082
:104A4000FDC3EF9DEE9400500302495A90A37CE011
:104A5000FF221289B890A0ADEEF0A3EFF02212B2BF
:104A6000A1AE07EEC3940F2290A0BB129EC2C20952
:104A700090A0BF7410F0E490A0BEF090A0BF129E72
:104A8000FA90A0BEE0FDC39FE49E5031129F23A385
:104A9000EEF0A3EFF0EC129F2E12CE4490A0BB12CA
:104AA0009EA6129F1B90A0D0E0B5F009A3E0B50729
:104AB00004D209800890A0BEE004F080BE90A0BBA4
:104AC000129EA690000712544490A0C2129EAF906E
:104AD000001312544490A0C4129EAF9000151254BB
:104AE00044FF90A0C6129EB0900018125444FF904C
:104AF000A0C8129EB090001A125444FF90A0CA128F
:104B00009EB090001C125444FF90A0CC129EB09016
:104B100000171252CD90A0CEF090002A1252CD90E4
:104B2000A0CFF0129F1B90A0D0129EB0200935900C
:104B3000A0BFE0FD90A037E0FB8DF0A4FF90A0C0E7
:104B4000129EB0129EFCEB2401FDE433FCCFCDCFCE
:104B5000CECCCE12536290A037EDF07B017AA079D3
:104B60002D12CB8290A0C0E0FEA3E0FF90A0BFE09A
:104B7000129F2E024C3E90A0BB129EC2C20990A072
:104B8000BF7410F0E490A0BEF090A0BF129EFA9007
:104B9000A0BEE0FDC39FE49E5031129F23ECFD7C3C
:104BA000007B017AA079C012CE4490A0BB129EA6D1
:104BB000129F1B90A0CEE0B5F009A3E0B50704D288
:104BC00009800890A0BEE004F080BE30096E90A07D
:104BD000C0E0FEA3E0FF90A0BB129EA6900007EEEF
:104BE0008FF012549B90A0C2E0FFA3E0900013123C
:104BF0009F0E90A0C4E0FFA3E0900015129F0E90BE
:104C0000A0C6E0FFA3E0900018129F0E90A0C8E09D
:104C1000FFA3E090001A129F0E90A0CAE0FFA3E04D
:104C200090001C129F0E90A0CCE090001712532E03
:104C300090A0CDE090002A12532ED322C32202AEC0
:104C400051FF024FF7E86480F8E933E8336011045C
:104C500060F0ED33EC337009E8FCE9FDEAFEEBFFB0
:104C6000220460DED3EB9FEA9EE99DE8C2E78CF068
:104C7000C2F795F0400CE8CCF8E9CDF9EACEFAEBB2
:104C8000CFFB124FC285D0F05804700320D5B3E893
:104C90000470075002B2D502500192D5EC0460F7BF
:104CA000E4CCC0E0C398F8603B94186008400DD095
:104CB000E0FB024FD9E4FBFAC9FC8028E830E406A7
:104CC000E4C9FBE4CAFCE830E305E4C9CACBFCE86C
:104CD00054076010F8C3E913F9EA13FAEB13FBEC7D
:104CE00013FCD8F130F52FC3E49CFCEF9BFFEE9A48
:104CF000FEED99FDD0E0FBEF4E4D4C701222DB0330
:104D0000024FFEEC2CFCEF33FFEE33FEED33FDEDF6
:104D100030E7EB024FD9EF2BFFEE3AFEED39FDD035
:104D2000E0FB50130BBB0003025001ED13FDEE132B
:104D3000FEEF13FFEC13FC024FD9EC4D6011E84974
:104D40007017ED33EC3304600DE4FCFFFEFD22E947
:104D500033E8330470F8024FF7124FC25804600969
:104D6000E4CC248150062850090250012840030257
:104D70004FFEC0E0EB4A7044B98006D0E0FB024F22
:104D8000EDEF4E701CBD8008EBFFEAFEE9FD80EB05
:104D9000E98DF0A4FEE5F0024E23E9CDF9EAFEEB41
:104DA000FFEF89F0A4FCE5F0CE89F0A42EFFE435F6
:104DB000F0CD89F0A42DFEE435F08067EF4E70054C
:104DC000BD80D780C3EF8BF0A4ACF0EE8BF0A42CA9
:104DD000FCE435F0F8EF8AF0A42CE5F038FCE4337D
:104DE000CB8DF0A42CFCE5F03BF8EE8AF0A42CFC73
:104DF000E5F038F8E433CF89F0A42CFCE5F038CFA7
:104E00003400CE89F0A42FFFE5F03EFEE433C98DD7
:104E1000F0A42EFEE5F039CD8AF0A42FFFE5F03E98
:104E2000FEE43DFD33D0E0FB50070BBB000F02500A
:104E300001EC2CFCEF33FFEE33FEED33FD024FD9D6
:104E4000025001EC5D046005E859047003024FF75D
:104E5000124FC2580460F6EC4860F2EC7004FDFE9C
:104E6000FF22C860DB2481C85009C3986002500645
:104E7000024FFE9850CAF582E9294B4A7005AB8271
:104E8000024FED75F0007C1A7880C3EF9BEE9AED2F
:104E900099400DC3EF9BFFEE9AFEED99FDE842F0BD
:104EA000DC23ACF0D0E0FFD0E0FED0E0FDAB822010
:104EB000E7101BEB60BAEC2CFCEF33FFEE33FEED9A
:104EC00033FD024FD9E803F830E705C0F075F00074
:104ED000EF2FFFEE33FEED33FD40B830E7C280AA7E
:104EE00074F8CC6480CCC86480C8F582046043C385
:104EF000EB9FF5F0EA9E42F0E99D42F0E89C45F018
:104F000060305018E5825FFFE582F42B5582FB503C
:104F1000210ABA001D09B90019088016E5825BFB59
:104F2000E582F42F5582FF50090EBE00050DBD002D
:104F3000010CC3EB9FF5F0EA9E42F0E99D42F0E8D8
:104F40009C45F06007CC4820E701B3EC2275F020C7
:104F5000800E75F010800575F0087D007E007F00E2
:104F60003392D530D5031255E5EC334010EF33FFC3
:104F7000EE33FEED33FDEC33FCD5F0ED22E5F0240D
:104F80007EA2D513CC92E7CDCEFF22EDD2E7CD3372
:104F9000EC3392D524814006E4FFFEFDFC22FCE4C4
:104FA000CFCECDCC24E0501174FF80EDC3CC13CC18
:104FB000CD13CDCE13CECF13CF0470F030D5DE029B
:104FC00055E5E9D2E7C933E833F892D5EDD2E7CD1C
:104FD00033EC33FC5002B2D522EC30E7100FBF00A7
:104FE0000C0EBE00080DBD00040BEB6014A2D5EB47
:104FF00013FCED92E7FD2274FFFCFDFEFF22E4802E
:10500000F8A2D574FF13FC7D80E480EFF920E73629
:1050100024F950037907E4F42402FBE58215827039
:10502000021583DBF6E024FB501BE96014E4F0E595
:1050300082158270021583E004F0B40A08E4F0D906
:10504000EE7401F00A22C2D522ED33EC3392D5FA88
:10505000602AB4FF33EDC2E77BFF60067A50796EB9
:10506000E4227A50797720D5047A507972224E6101
:105070004E002B494E46002D494E4600E47A08F07A
:10508000A3DAFC7B00740722C083C082ECC0E0ED91
:10509000C0E0EEC0E0EFC0E0EA75F010A4CAABF0EB
:1050A00075F04DA42BFBE435F0FCEA2410FAEB3448
:1050B000C5FBEC34D9FCEDC2E7FF75F056A4F4242F
:1050C00011C5F0F434C58FF0A42AE5F03BE43CF0C0
:1050D00020E71412517ED0E0FFD0E0FED0E0FDD0FA
:1050E000E0FC124E438014F40412517ED0E0FFD055
:1050F000E0FED0E0FDD0E0FC124D3AD082D083E05B
:10510000FAEDD2E7CD33EC332482FBE4C3CF33CFC7
:10511000CE33CECD33CD33DBF37B0775F00A84601D
:1051200004F0A31B0AE5F0F0A38FF0740AA4FFAC0F
:10513000F08EF0740AA42CFEACF050010C8DF074CB
:105140000AA42CFDE435F0F0A3DBDE7407223F80D7
:1051500000004120000042C80000447A0000461CC4
:10516000400047C35000497424004B1896804CBE41
:10517000BC205A0E1BCA6753C21C749DC5AEFB608F
:10518000065407601C23231251ACEB5438600912FB
:1051900051981251A7124D3AECF8EDF9EEFAEFCB17
:1051A00022EB1251A780F1543803241C90514EFE7B
:1051B00093FC0EEE93FD0EEE930ECE93FF22E709C5
:1051C000F608DFFA8046E709F208DFFA803E8882B7
:1051D0008C83E709F0A3DFFA8032E309F608DFFAEF
:1051E0008078E309F208DFFA807088828C83E30913
:1051F000F0A3DFFA806489828A83E0A3F608DFFAED
:10520000805889828A83E0A3F208DFFA804C80D23A
:1052100080FA80C680D4806980F28033801080A6B6
:1052200080EA809A80A880DA80E280CA803389820E
:105230008A83ECFAE493A3C8C582C8CCC583CCF0BA
:10524000A3C8C582C8CCC583CCDFE9DEE7800D8961
:10525000828A83E493A3F608DFF9ECFAA9F0EDFB68
:105260002289828A83ECFAE0A3C8C582C8CCC583B0
:10527000CCF0A3C8C582C8CCC583CCDFEADEE88009
:10528000DB89828A83E493A3F208DFF980CC88F07B
:10529000EF60010E4E60C388F0ED2402B4040050AC
:1052A000B9F582EB2402B4040050AF2323458223D6
:1052B00090520E73BB010689828A83E0225002E776
:1052C00022BBFE02E32289828A83E49322BB010C83
:1052D000E58229F582E5833AF583E0225006E92547
:1052E00082F8E622BBFE06E92582F8E222E5822961
:1052F000F582E5833AF583E49322BB010989828A2A
:1053000083F8E028F022500327F722BBFE05F8E3DC
:1053100028F3228A838982F8E4932822BB01068934
:10532000828A83F0225002F722BBFE01F322F8BBEF
:10533000010DE58229F582E5833AF583E8F02250F4
:1053400006E92582C8F622BBFE05E92582C8F222BD
:10535000EF8DF0A4A8F0CF8CF0A428CE8DF0A42E71
:10536000FE22BC000BBE0029EF8DF084FFADF022C1
:10537000E4CCF875F008EF2FFFEE33FEEC33FCEED3
:105380009DEC984005FCEE9DFE0FD5F0E9E4CEFDC6
:1053900022EDF8F5F0EE8420D21CFEADF075F00899
:1053A000EF2FFFED33FD4007985006D5F0F222C3F2
:1053B00098FD0FD5F0EA22C2D5EC30E709B2D5E46A
:1053C000C39DFDE49CFCEE30E715B2D5E4C39FFF1E
:1053D000E49EFE125362C3E49DFDE49CFC80031234
:1053E000536230D507C3E49FFFE49EFE22C5F0F868
:1053F000A3E028F0C5F0F8E582158270021583E07D
:1054000038F022A3F8E0C5F025F0F0E582158270AF
:10541000021583E0C838F0E822BB010A89828A833A
:10542000E0F5F0A3E022500687F009E71922BBFE61
:1054300007E3F5F009E3192289828A83E493F5F002
:1054400074019322BB0110E58229F582E5833AF5C8
:1054500083E0F5F0A3E0225009E92582F886F00800
:10546000E622BBFE0AE92582F8E2F5F008E222E531
:10547000832AF583E993F5F0A3E99322BB010A8916
:10548000828A83F0E5F0A3F0225006F709A7F0190D
:1054900022BBFE06F3E5F009F31922F8BB0111E582
:1054A0008229F582E5833AF583E8F0E5F0A3F0225E
:1054B0005009E92582C8F608A6F022BBFE09E925B5
:1054C00082C8F2E5F008F222E88FF0A4CC8BF0A4B9
:1054D0002CFCE98EF0A42CFC8AF0EDA42CFCEA8EC6
:1054E000F0A4CDA8F08BF0A42DCC3825F0FDE98FE9
:1054F000F0A42CCD35F0FCEB8EF0A4FEA9F0EB8FE0
:10550000F0A4CFC5F02ECD39FEE43CFCEAA42DCEAC
:1055100035F0FDE43CFC2275F008758200EF2FFFAA
:10552000EE33FECD33CDCC33CCC58233C5829BED7B
:105530009AEC99E58298400CF582EE9BFEED9AFD7F
:10554000EC99FC0FD5F0D6E4CEFBE4CDFAE4CCF92F
:10555000A88222B800C1B90059BA002DEC8BF084A2
:10556000CFCECDFCE5F0CBF97818EF2FFFEE33FE70
:10557000ED33FDEC33FCEB33FB10D703994004EB28
:1055800099FB0FD8E5E4F9FA227818EF2FFFEE33F4
:10559000FEED33FDEC33FCC933C910D7059BE99A06
:1055A0004007EC9BFCE99AF90FD8E0E4C9FAE4CC97
:1055B000FB2275F010EF2FFFEE33FEED33FDCC3301
:1055C000CCC833C810D7079BEC9AE899400AED9BEA
:1055D000FDEC9AFCE899F80FD5F0DAE4CDFBE4CCC9
:1055E000FAE4C8F922C3E49FFFE49EFEE49DFDE4D3
:1055F0009CFC22EB9FF5F0EA9E42F0E99D42F0EC24
:105600006480C864809845F022EB9FF5F0EA9E42E2
:10561000F0E99D42F0E89C45F022E8600FECC313EE
:10562000FCED13FDEE13FEEF13FFD8F122E860103E
:10563000ECA2E713FCED13FDEE13FEEF13FFD8F021
:1056400022E8600FEFC333FFEE33FEED33FDEC33A2
:10565000FCD8F122E0FCA3E0FDA3E0FEA3E0FF22E2
:10566000ECF0A3EDF0A3EEF0A3EFF022A882858387
:10567000F0D083D08212568312568312568312566C
:1056800083E473E493A3C583C5F0C583C8C582C80A
:10569000F0A3C583C5F0C583C8C582C822A42582EE
:1056A000F582E5F03583F58322E0FBA3E0FAA3E081
:1056B000F922F8E0FBA3A3E0F925F0F0E5821582DA
:1056C00070021583E0FA38F022EBF0A3EAF0A3E9C8
:1056D000F022BB010DE58229F582E5833AF58302CC
:1056E00056A95007E92582F802575BBBFE07E9255A
:1056F00082F8025764E58229F582E5833AF5830250
:10570000576DD083D082F8E4937012740193700DBA
:10571000A3A393F8740193F5828883E473740293CE
:105720006860EFA3A3A380DF8A838982E473EC8E91
:10573000F0A4CCC5F0CCCDF8EFA4CEC5F02DFDE49F
:105740003CFCE8A42EC8C5F03DFDE43CFCEFA4FF02
:10575000E5F028FEE43DFDE43CFC22E6FB08E6FA29
:1057600008E6F922E2FB08E2FA08E2F922E493FBF8
:10577000740193FA740293F92290A0BFEFF0A2AFE4
:10578000E433A3F0C2AF90A0BFE0701690A32FE067
:10579000B4260F90A32DE07002A3E0604B12895055
:1057A000804690F067E090A0C1F090F068E090A093
:1057B000C2F0126F1EBF20057450F080037406F013
:1057C00090F075E0FD90A0BFE0FF7E0012871AAF59
:1057D00005ED54FE90F075F090A0C1E090F067F0F8
:1057E00090A0C2E090F068F090A0C0E024FF92AFDB
:1057F00022ED12531C740129F9E43AFAEC02531C0D
:10580000E5905403C403C0E0748AC0E0C082C08342
:10581000028A00E5905403C403C0E0748AC0E0C06B
:1058200082C083028A08E5905403C403C0E0748AEE
:10583000C0E0C082C083028A10E5905403C403C054
:10584000E0748AC0E0C082C083028A18EFC403906B
:105850008A007390BB5C010090BFA2010090BB9CCA
:10586000010090B77E010090A655010090304601DE
:1058700026900C63013990437901009043DD0126A5
:1058800090CD3D010090E26C011390D3AA011390DA
:10589000E22901139049FB012690B6D3010090CD77
:1058A000CD01009042D8012690CDC7010090402E36
:1058B0000126903FF10126903EE5012690496201C4
:1058C0002690CB82010090D8B2011390D67C0113B0
:1058D00090D8EE011390DC1D011390E0CC011390E1
:1058E000D8D0011390DA44011390DEC7011390DE83
:1058F000D3011390DEDF011390DEEB011390E1FF83
:10590000011390DFAF011390E0D4011390D7080189
:105910001390D99E011390DFB8011390DFC10113DA
:1059200090DFCA011390E0DC011390D9BA01139003
:10593000D874011390DFD3011390DFDC011390DFE3
:10594000E5011390DD88011390DFEE011390E0E490
:10595000011390D9F2011390D9D6011390DFF7010A
:105960001390E000011390E009011390E01201137D
:1059700090E0EC011390D56E011390D46B0113905D
:10598000E01B011390E024011390E02D011390E03F
:1059900036011390E03F011390DF02011390D5E729
:1059A000011390D51A011390E048011390E05101C2
:1059B0001390E05A011390E063011390E06C01131F
:1059C00090DF0D011390DA95011390D76D011390BC
:1059D000DF18011390DAAE011390D78E011390DD1A
:1059E000C4011390DC5C011390DC6F011390DF2382
:1059F000011390D92A011390D69F011390DF2E0135
:105A00001390D497011390D4C3011390DDD20113E6
:105A100090CE10011390D344011390DDE001139058
:105A2000D377011390CE56011390DDEE011390DF72
:105A300039011390D6C2011390D947011390DF4466
:105A4000011390DAC7011390D7AF011390DDFC0169
:105A50001390DAE0011390D7D0011390DE0A0113FE
:105A600090DAF9011390D7F1011390DF4F011390F1
:105A7000DB12011390D812011390DF5A011390DB4F
:105A80002B011390D833011390DE18011390D964C1
:105A9000011390D6E5011390DE26011390D9810100
:105AA0001390D658011390DE34011390DE79011360
:105AB00090DE86011390DF65011390DCF2011390F4
:105AC000DD38011390DF70011390DDA6011390DD26
:105AD000B5011390DEA0011390DE42011390E1C4E2
